:020000040800F2
:10000000881B0020D5000008753100089B2D0008D2
:1000100000000000000000000000000000000000E0
:10002000000000000000000000000000B7350008DC
:100030000000000000000000B5350008B9350008D8
:10004000E7000008E7000008E7000008E7000008F4
:10005000E7000008E7000008E7000008E7000008E4
:10006000E7000008BD040008E7000008E7000008FA
:10007000E7000008E7000008E7000008E7000008C4
:10008000E7000008E7000008D5360008000000007F
:10009000E7000008E7000008E7000008E7000008A4
:1000A000E7000008E7000008E7000008D53D000869
:1000B000E7000008E7000008E7000008615F0008AB
:1000C0000348854600F0B4F800480047696C000812
:1000D000881B00200448804704480047FEE7FEE7ED
:1000E000FEE7FEE7FEE7FEE76D360008C100000808
:1000F00030B50B46014600202022012409E00D46C0
:10010000D5409D4205D31D469540491B2546954047
:1001100040191546521E002DF1DC30BD70B500248B
:100120002546002801DA01244042002901DA012590
:100130004942FFF7DDFFAC4200D04042002C00D026
:10014000494270BDF0B51FB40646002082B0054696
:100150004024019100901BE0019922460F46304651
:1001600000F054F8049A059B801A994110D3104668
:100170001946224600F03AF8361A8F410197224676
:1001800001200021009F00F031F838184D41009007
:100190002046641E0028DFDC019B00982946324679
:1001A00007B0F0BD03460B439B0703D009E008C925
:1001B000121F08C0042AFAD203E00B780370401C17
:1001C000491C521EF9D27047D2B201E00270401CA5
:1001D000491EFBD270470022F6E710B513460A46C7
:1001E00004461946FFF7F0FF204610BD10B5202A3F
:1001F00004DB0146203A9140002010BD91402023AD
:100200009C1A0346E3401943904010BD10B5202AC4
:1002100004DB0846203AD040002110BD0B46D340F5
:10022000D0402024A21A91400843194610BD000076
:10023000064C0125064E05E0E36807CC2B430C3C39
:1002400098471034B442F7D3FFF73EFFA07400087C
:10025000C074000870B58C180578401C6B075B0FE4
:1002600001D10378401C2A1106D10278401C03E01A
:1002700006780E70401C491C5B1EF9D12B0705D473
:100280000023521E0DD40B70491CFAE70378401C62
:10029000CB1A921C03E01D780D70491C5B1C521E8A
:1002A000F9D5A142D8D3002070BD70B50546AC6A1F
:1002B000606D50210840002836D1606D012149024F
:1002C000084360652068C06803218902084000284F
:1002D00026D12020005D002822D120680068082156
:1002E000084008281CD12068806804210840800844
:1002F00000280DD1206840680C218843216848609F
:10030000606DFF210131884301210843606507E0EA
:10031000606D202108436065A06D01210843A06540
:10032000204600F0A7F903E0E06C416B28468847BF
:1003300070BD70B50546AC6A606D402108436065CC
:10034000A06D04210843A065204600F095F970BD1A
:1003500070B50446A56A284600F08DF970BD00000E
:1003600038B50446074908480068FFF7C1FE6043F6
:10037000009002E00098401E009000980028F9D1FB
:1003800038BD000040420F003801002070B504461F
:100390000025206880688007800F012807D1206829
:1003A0000068C007C00F002801D0012000E0002035
:1003B000002839D1206880681C490840002801D1F4
:1003C000012000E00020002809D1606D10210843C1
:1003D0006065A06D01210843A065012070BD206803
:1003E000806801210843216888600120FFF7B8FF79
:1003F00000F06EFD05460EE000F06AFD401B0A2885
:1004000009D9606D102108436065A06D0121084382
:10041000A0650120E2E720680068C007C00F012145
:10042000484048400028E7D00020D7E71700008068
:100430000346042B16D008DC002B0FD0012B0ED066
:10044000022B0DD0032B12D10BE0202B0BD0212B34
:100450000AD0222B09D0232B09D107E008E007E0BE
:1004600006E005E004E003E002E001E000E000BF98
:1004700000BF0020704700207047000010B5002228
:100480000449054803F05FFE0449034803F051FEA8
:10049000002010BDA013002088060020B80F002007
:1004A00070B504460D462146034803F042FE02485B
:1004B00003F011FE002070BD8806002010B5024830
:1004C00000F0DAFA10BD0000D003002030B51C2582
:1004D000446C2C400125A540046C65600468636091
:1004E0008468102C04D10468A2600468E16003E011
:1004F0000468A1600468E26030BD704770B50948C7
:10050000046945698669A419002C0AD008220649A5
:10051000204602F044FC042203491031284602F030
:100520003EFC70BD4000F81F0A01002070B5044673
:100530000D4600BF5020005D012801D1022070BD92
:1005400001215020015500BF206880680421084027
:10055000800800280AD0606D20210843606500BF34
:1005600000215020015500BF0120E8E73C496868A0
:10057000884238D02068806A29684903490B0843BB
:100580002168886228684003400B364908400121F1
:100590008904884208D134488068490108433249B7
:1005A00088600A20FFF7DCFE28684003400B2F49D3
:1005B000084001214904884205D12B48806849013F
:1005C00008432949886028684003400B28490840AF
:1005D0000121090488423BD123488068090208436D
:1005E0002149886034E02068806A29684903490B02
:1005F00088432168886228684003400B19490840F5
:1006000001218904884205D117488068490188433F
:100610001549886028684003400B144908400121AF
:100620004904884205D110488068490188430E4931
:10063000886028684003400B0D49084001210904E7
:10064000884205D1084880680902884306498860C5
:1006500000BF00215020015500BF00206FE70000BF
:10066000011000000000044800270140000002447F
:1006700000000140704770477047000010B5044605
:10068000002C01D1012010BD606D002806D1A065AD
:10069000002150200155204600F00EF9606D102118
:1006A0000840102806D0206880680421084080088F
:1006B00000280AD0606D10210843606500BF00214A
:1006C0005020015500BF0120DDE7606DFF210131A1
:1006D0008843022108436065206880688007800F96
:1006E000012807D120680068C007C00F002801D08A
:1006F000012000E0002000283AD100BF0321890733
:100700006068884207D049426068884203D0490047
:10071000606888420CD120680069800080082168E8
:10072000086120680069616808432168086112E077
:100730002068006980008008216808615C48806842
:100740000F21890488435A49886008468068616897
:1007500008435749886000BF2068C0681821884353
:100760002168C8602068C068A16808432168C86023
:100770004F4880680121490688434D4988600846F2
:100780008068A18E490608434949886020688068CE
:10079000012109070840002804D120688068084327
:1007A000216888602068C068424908402168C860A4
:1007B0002169E068022901D1042100E000210843F9
:1007C0002021095D490308432C21095D49000843A4
:1007D000216B0843A16989030843E169C903084300
:1007E0002168C96808432168C860FF21C231606A76
:1007F000884207D0A16A606A08432168C968084333
:100800002168C8602120005D012813D12020005DEF
:10081000002807D12068C068012109040843216825
:10082000C86007E0606D202108436065A06D01216C
:100830000843A065E06B012817D120680069FF21FB
:100840008900884321680861216C606C0843A16CB1
:100850000843216809690843216808612068006924
:1008600001210843216808610BE020680069C00786
:10087000C00F002805D020680069400840002168AA
:10088000086120684069C008C0002168486120688C
:100890004069A16B0843216848610020A065606D34
:1008A000022188430121084360650020EBE6000037
:1008B000002701401902FEFF10B586B0044614213E
:1008C00001A8FFF788FC2149206888423CD12048D4
:1008D000406B491508431E49486300BF0846C06A7B
:1008E000012108431A49C8620846C06AC007C00F00
:1008F000009000BF00BFFF20019003200290002065
:10090000039001A90520000700F0DCF91148124905
:1009100008600020486000210F488160C16080218C
:10092000016149004161890081612021C161C901E2
:10093000016200F025F9002801D0FFF7DEFD00BFBD
:100940000548E064846200BF06B010BD0024014089
:100950000010024008000240D0030020F8B5044611
:100960000D4616460027206880680421084080084C
:10097000002848D100BF5020005D012801D102208D
:10098000F8BD01215020015500BFE069012803D0C6
:100990002046FFF7FBFC0746002F35D1606D1B4951
:1009A0000840FF210131084360650020A06500BFB9
:1009B00000215020015500BF1548E16CC862154860
:1009C000E16C08631448E16C48631C2021680860EE
:1009D0002068406810210843216848602068C0688A
:1009E000012108432168C86022681146403133461E
:1009F0002A46E06C00F018F920688068042108435A
:100A00002168886000E002273846B9E7FEF1FFFF61
:100A1000AB020008510300083303000870B5044618
:100A200000252520005D022803D00420E063012575
:100A300020E0206800680E21884321680860206853
:100A4000006840084000216808601C21606C084074
:100A500001218140206C416001212520015500BF0A
:100A600000212420015500BFA06B002802D02046A1
:100A7000A16B8847284670BD70B50446206C056898
:100A8000206806681C20616C0140042088402840D2
:100A900000281DD004203040002819D020680068AC
:100AA00020210840002805D12068006804218843DF
:100AB000216808601C21606C084004218140206C82
:100AC0004160206B00285AD02046216B884756E0B1
:100AD0001C20616C0140022088402840002825D05D
:100AE00002203040002821D02068006820210840E2
:100AF000002808D1206800680A218843216808601E
:100B00000121252001551C21606C084002218140F3
:100B1000206C416000BF00212420015500BFE06A25
:100B200000282CD02046E16A884728E01C20616C10
:100B30000140082088402840002820D0082030406C
:100B400000281CD0206800680E21884321680860B6
:100B50001C21606C084001218140206C4160012013
:100B6000E06301212520015500BF0021242001550B
:100B700000BF606B002802D02046616B884770BDC3
:100B800070B50446002C01D1012070BD244A2168B3
:100B9000881A1421FFF7ACFA8000606420480838F6
:100BA0002064022125200155206805681D48054064
:100BB000E168A06808432169084361690843A169A5
:100BC0000843E1690843216A08430543206805603A
:100BD00001218903A068884217D011487830806AC3
:100BE0001C22616C11400F228A4090430C497831DD
:100BF00088621C22616C1140606888400849783125
:100C0000896A08430649783188620020E06301213F
:100C1000252001550021242001550020B5E70000C2
:100C2000080002400F80FFFFF8B504460D46164647
:100C30001F460020009000BF2420005D012801D144
:100C40000220F8BD01212420015500BF2520005DB0
:100C500001282DD10221252001550020E0632068C4
:100C6000006840084000216808603B46324629463B
:100C70002046FFF72BFC206B002806D02068006878
:100C80000E210843216808600BE0206800680421F9
:100C9000884321680860206800680A2108432168A9
:100CA000086020680068012108432168086006E0A8
:100CB00000BF00212420015500BF022000900098B1
:100CC000BFE7000070B50346002200240020DFE0EB
:100CD000012696400D6835402C46002C77D04D6893
:100CE000022D02D04D68122D15D1D508AE001D463B
:100CF0002035A8595507EE0E0F25B5400646AE43E0
:100D000030465607F60E0D69B5402843D508AD00AC
:100D10001E46203670514D68012D08D04D68022DB9
:100D200005D04D68112D02D04D68122D18D198684C
:100D300056000325B5400646AE4330465600CD6802
:100D4000B540284398605868012595400646AE4353
:100D5000304610264D6835402D099540284358608F
:100D6000186856000325B5400646AE4330460D7957
:100D7000AD07AD0F5600B54028431860D86856003F
:100D80000325B5400646AE43304656008D68B54053
:100D90002843D860012636074D683540B54276D1E4
:100DA0003E4D6D6B012635433C4E75633C4D9608B8
:100DB000B600A85995072E0F0F25B5400646AE433D
:100DC000304605252D07AB4202D100251AE05EE032
:100DD000344DAB4201D1012514E0334DAB4201D17A
:100DE00002250FE0314DAB4201D103250AE0304D21
:100DF000AB4201D1042505E02E4DAB4201D10525C2
:100E000000E006259607360FB5402843244D960886
:100E1000B600A851284D28680546A5432846012656
:100E200036044D683540B54202D105462543284673
:100E3000214D286068680546A543284601267604AA
:100E40004D683540B54202D10546254328461A4D26
:100E50006860A8680546A5432846012636054D6802
:100E60003540B54202D1054625432846124DA860BB
:100E7000E8680546A5432846012676054D683540B5
:100E8000B54202D10546254328460B4DE860521C69
:100E90000D68D540002D00D01AE770BD001002404B
:100EA000080001400004005000080050000C0050F1
:100EB00000100050001C00500004014042694A40EC
:100EC00042617047002A01D0816100E08162704771
:100ED00001480068704700003401002002464120AC
:100EE000805C20282FD100BF4020805C012801D1E8
:100EF0000220704701234020835400BF2423412057
:100F00008354106800684008400013681860106837
:100F1000006801231B039843136818601068006879
:100F200008431368186010680068012318431368A9
:100F3000186020234120835400BF002340208354A5
:100F400000BF0020D5E70220D3E710B502460B46CC
:100F50004120805C20282ED100BF4020805C0128E9
:100F600001D1022010BD01244020845400BF24245C
:100F700041208454106800684008400014682060D4
:100F8000106801680F2424020846A0430146180295
:100F90000143106801601068006801242043146850
:100FA000206020244120845400BF00244020845429
:100FB00000BF0020D6E70220D4E7000010B50446A9
:100FC000002C01D1012010BD4120005D002805D179
:100FD000002140200155204600F05AF824214120EC
:100FE00001552068006840084000216808600F2112
:100FF00009066068884321680861206880680121CB
:10100000C903884321688860E068012806D101216E
:10101000C903A06808432168886005E0212189028E
:10102000A068084321688860E068022802D1800235
:101030002168486020684068144908432168486076
:101040002068C0680121C90388432168C8606169BC
:1010500020690843A169090208432168C860216A20
:10106000E06908432168086020680068012108439E
:101070002168086000206064202141200155002083
:10108000206300214220015500209CE700800002DF
:1010900010B586B00446142101A8FFF79CF8144946
:1010A0002068884222D100BF1248C06A022108434A
:1010B0001049C8620846C06A02210840009000BF7B
:1010C00000BFC02001901220029001200390032055
:1010D00004900120059001A90748FFF7F3FD05489A
:1010E000806B0121490508430249886306B010BDA1
:1010F0000054004000100240000400500248006804
:10110000401C0149086070473401002010B50024DC
:10111000084800684021084306490860002000F0A4
:101120000BF8002801D0012401E000F01FF8204650
:1011300010BD00000020024070B5044600257D214E
:10114000C90009480068FEF7D3FF064601F09CFA83
:10115000002801D0012504E000222146501E00F0A5
:1011600021F8284670BD0000380100200648406B79
:1011700001210843044948630846806B0904084379
:1011800001498863704700000010024000BFC2069A
:10119000D20E01219140024A116000BF7047000049
:1011A00000E100E070B504460D461646294620468B
:1011B00001F0E2FF70BD0246116801239B20800010
:1011C00083505820405A1843582358525820405AA8
:1011D00002231843582358520020704701460A68DA
:1011E00001234D20C0004350002013235B01CB1886
:1011F00018705420805A01231843542398525420C5
:10120000805A022318435423985200207047704795
:1012100070B505460C4680202040802805D1600727
:10122000060E28462830311804E066012846FF30B3
:1012300029303118002A03D100200873CB8004E044
:10124000012008730B81180C4881002070BD70B517
:1012500004460D466B012146283159184A69272159
:1012600009010859294603F0D7FA70BD70B5044644
:101270000D466B012146FF31293159184A69272152
:1012800009010859294603F05DFB70BD70B504469D
:101290000E4680203040802807D17007010E20467E
:1012A00028300D180120687007E07007010E2046F5
:1012B000FF3029300D18002068707007400F28702B
:1012C00000BF112040012018007A012801D102201E
:1012D00070BD0120112149016118087200BF294623
:1012E000206804F045FA00BF00201121490161186F
:1012F000087200BF00BFEBE770B504460E4630072A
:10130000000F6168884201D9012070BD8020304003
:10131000802807D17007010E204628300D180120C3
:10132000687007E07007010E2046FF3029300D1865
:10133000002068700020A8707007400F287000BF60
:10134000112040012018007A012801D10220DCE799
:101350000120112149016118087200BF2946206847
:1013600004F062FB00BF00201121490161180872DE
:1013700000BF00BFC9E702464807030E1046FF3012
:1013800029301818C0697047FFB581B005460E4670
:101390001F460020009080203040802807D1700731
:1013A000010E284628300C180120607007E07007F5
:1013B000010E2846FF3029300C180020607070079D
:1013C000400F207003982061E7706078002801D0FA
:1013D0002078E081022F01D10020207100BF112070
:1013E00040012818007A012802D1022005B0F0BD82
:1013F0000120112149016918087200BF214628689F
:1014000003F07CFF00BF0020112149016918087218
:1014100000BF0098EAE7FFB581B005460E461746C3
:101420007007010E2846FF3029300C1867610498B8
:10143000A0610020E06160707007400F20707007AD
:10144000400F002804D12146286804F083FB03E004
:101450002146286804F07EFB002005B0F0BD70B581
:1014600004460D466807400F6168884201D9012093
:1014700070BD80202840802807D16807010E2046D3
:1014800028300E180120707006E069012046FF30F8
:1014900029300E18002070700120B0706807400FCE
:1014A000307000BF112040012018007A012801D1BE
:1014B0000220DDE70120112149016118087200BFF7
:1014C0003146206804F018FB6807400F002805D15A
:1014D000232109016118206804F0A2FA00BF00204E
:1014E000112149016118087200BF00BFC0E7FFB5B4
:1014F00081B005460E4617467007010E2846283073
:101500000C1867610498A0610020E0610120607000
:101510007007400F20707007400F002804D121464B
:10152000286804F017FB03E02146286804F012FB4A
:10153000002005B0F0BD000010B50446206804F09E
:1015400017FD0121C9030840884202D1204601F05D
:101550004FFE206804F00CFD0121890208408842FA
:101560000DD12068403080888843216840318880D0
:10157000204600F093F90021204600F0C1F92068D0
:1015800004F0F6FC012189030840884206D1206856
:10159000403080888843216840318880206804F08A
:1015A000E7FC012149030840884206D12068403009
:1015B00080888843216840318880206804F0D8FC06
:1015C00001210903084088422BD12068403000885F
:1015D0005849084021684031088020684030008820
:1015E0005449091F084021684031088013204001F8
:1015F00020180078012808D1002013214901611822
:10160000087000212046FFF702FE204600F05AF93C
:1016100020684030808801210903884321684031D7
:101620008880206804F0A4FC0121C9020840884297
:1016300024D12068403000880821084321684031C7
:1016400008802068403080880121C90288432168D1
:101650004031888020684030008804210843216898
:1016600040310880206804F083FC01210903084010
:10167000000B002802D1204600F08EF9206804F00B
:1016800077FC80210840802832D120684030808853
:101690008843216840318880132040012018007859
:1016A000002822D1206840300088042108432168A6
:1016B00040310880206840300088082108432168B4
:1016C0004031088001201321490161180870206809
:1016D0004030808AF0210840810899208000015123
:1016E00001212046FFF793FD02E0204600F054F967
:1016F000206804F03DFC012149020840884209D1DC
:1017000020684030808888432168403188802046A6
:1017100000F0EEF8206804F02BFCFF2101310840B6
:10172000884206D120684030808888432168403153
:10173000888010BDFBFF000030B585B00446002C4A
:1017400002D1012005B030BD112040012018407A9F
:10175000002806D11121490161180872204600F0C5
:1017600083F803201121490161184872206804F0B0
:101770004BF9002523E001216A012046283010188A
:101780004170690120462830455469010818C58117
:1017900000216A01204628301018C1706A012046D5
:1017A0002830101801616A01204628301018416164
:1017B0006A012046283010188161681CC5B2606833
:1017C000A842D8D8002523E000216A012046FF3036
:1017D00029301018417069012046FF3029304554E6
:1017E00000216A011018C1706A012046FF302930BB
:1017F000101801616A012046FF302930101841613C
:101800006A012046FF30293010188161681CC5B27A
:101810006068A842D8D81422214610316846FEF7E5
:10182000C1FC20460FC804F0DFF8002806D00220D3
:101830001121490161184872012083E70021242009
:10184000015501201121490161184872E069012800
:1018500002D12046FFF7C2FC206A012802D12046AF
:10186000FFF7A9FC00206DE710B504460949206880
:1018700088420ED10848806B0121C90508430649FA
:101880008863002211461F20FFF78CFC1F20FFF702
:101890007DFC10BD005C00400010024070B50446A5
:1018A0000125A068022801D0FEF727FE27210901A3
:1018B0000859294603F0ABF927210901085903F01B
:1018C0004CF970BD10B50446A069002807D0074840
:1018D0000069062188430549086101F071FE27214E
:1018E0000901085903F070F910BD000000ED00E097
:1018F00010B5044627210901085903F070F910BDFD
:1019000070B504460D4600BF112040012018007A32
:10191000012801D1022070BD012011214901611867
:10192000087200BF242005552946206804F044FBB6
:1019300000BF0020112149016118087200BF00BFDB
:10194000E9E710B5044627210901085923210901B7
:10195000611803F073F910BD10B5044600BF1120E3
:1019600040012018007A012801D1022010BD012079
:10197000112149016118087200BF206804F02AF89B
:10198000206804F0E1FA00BF00201121490161182C
:10199000087200BF00BFE9E710B50446272109011E
:1019A000085903F0B3F9A069002805D0034800697D
:1019B000062108430149086110BD000000ED00E068
:1019C000F8B50446202120680840202804D0890169
:1019D0002068084088427DD12021206808402028C6
:1019E00000D100BF0121C90220680840884200D10F
:1019F00000BF00279948806B012109070840002893
:101A000005D19648806B0843944988630127944820
:101A10000068FF2101310840002816D19048006875
:101A200008438F490860FFF753FA064606E0FFF7C0
:101A30004FFA801B642801D90320F8BD884800684C
:101A4000FF21013108400028F1D0844805680321B6
:101A500009050D4060680840A84203D1A06808400D
:101A6000A8420ED00321090460680840884208D1CA
:101A70007A480068012149040840884201D10120C8
:101A8000DBE7764840300069032109040840054639
:101A9000002D4AD060680840A84204D02021206868
:101AA000084020280BD003210904A0680840A84260
:101AB0003BD00121C90220680840884235D16748DF
:101AC00040300069032109048843054663484030DB
:101AD000006900E052E00121C90408435F49403138
:101AE0000861084600690121C90488435B49403107
:101AF000086108460561801528408915884214D17F
:101B0000FFF7E6F9064607E0FFF7E2F9801B5549C3
:101B1000884201D9032090E75048403000690121F4
:101B200049020840400A0028EED000BF00BF032150
:101B300009046068084088420AD1484800680901E1
:101B40008843032212056168114008434349086035
:101B500000BF42484030006903221204616811400E
:101B600008433E494031086100BF012F05D13B4881
:101B7000806B890588433949886300BF2078C00796
:101B8000C00F002809D035484030C0688008800068
:101B9000E168084331494031C860022120680840AB
:101BA000022809D12D484030C0680C2188432169A2
:101BB00008432A494031C8600421206808400428AD
:101BC0000AD126484030C0680321890288436169F0
:101BD000084322494031C86008212068084008288D
:101BE0000AD11E484030C068032109038843A16917
:101BF00008431A494031C860FF210131206808407C
:101C000088420AD115484030C0680321090488433E
:101C1000E169084311494031C8604021206808400B
:101C2000402809D10D484030C06809058843616AE1
:101C300008430A494031C860802120680840802854
:101C40000AD106484030C068032189048843216ACC
:101C5000084302494031C8600020EEE6001002400F
:101C60000070004088130000F8B504460D46002CB3
:101C700001D10120F8BD79480068C007C00FA84213
:101C80000ED2764800684008400028437349086037
:101C900008460068C007C00FA84201D00120E9E74C
:101CA000022120680840022807D16D48C068F02151
:101CB0008843A16808436A49C8602078C007C00FFC
:101CC00000284CD06068022809D1654800680121CD
:101CD00049040840400C002824D10120CAE760686C
:101CE000032809D15E480068012149060840400EDA
:101CF000002817D10120BDE76068012808D15848A5
:101D0000006804210840800800280BD10120B1E7B9
:101D100053480068012149020840400A002801D1C7
:101D20000120A7E74E48C06880088000616808432A
:101D30004B49C860FFF7CCF80646606802280FD10F
:101D400007E0FFF7C5F8801B4649884201D9032008
:101D500090E74348C0680C2108400828F1D134E0DE
:101D6000606803280FD107E0FFF7B2F8801B3D49F8
:101D7000884201D903207DE73948C0680C2108401A
:101D80000C28F1D121E0606801280FD107E0FFF7AE
:101D90009FF8801B3349884201D903206AE7304805
:101DA000C0680C2108400428F1D10EE007E0FFF7DD
:101DB0008FF8801B2B49884201D903205AE7284815
:101DC000C0680C2108400028F1D124480068C007F1
:101DD000C00FA8420ED9214800684008400028439F
:101DE0001E49086008460068C007C00FA84201D01D
:101DF00001203FE7042120680840042808D1184842
:101E0000C068072109028843E16808431449C86093
:101E1000082120680840082809D11148C068072116
:101E2000C90288432169C90008430D49C86000F010
:101E300049F80B49C968F022114009090A4A515C66
:101E4000C8400A4908600020FFF776F90746002FCE
:101E500001D038460EE700200CE7000000200240C9
:101E60000010024088130000187400083801002098
:101E700001480068704700003801002000B5FFF7F6
:101E8000F7FF0549C968072212021140090A034AEF
:101E9000515CC84000BD00000010024028740008DA
:101EA00000B5FFF7E5FF0549C9680722D2021140D6
:101EB000C90A034A515CC84000BD0000001002403E
:101EC00028740008FEB52E48C7680C20384000284A
:101ED00045D0042804D008280CD00C283ED10BE0B3
:101EE0002748006810210840002801D0254C00E058
:101EF000254C41E0254C3FE00F2080043840800C09
:101F000023490E5C032080053840800D401C019061
:101F10001B48C068012109040840002807D01B495C
:101F2000714308460199FEF7E3F8054614E01448AA
:101F3000006810210840002807D012497143084664
:101F40000199FEF7D5F8054606E00F4971430846AA
:101F50000199FEF7CDF805462C460DE000BF084874
:101F60004068072149030840400B00900098401C3E
:101F700001218140CC0300BF00BF2046FEBD000010
:101F80000010024000093D000024F40000127A0015
:101F900030740008FEB50446002C01D10120FEBDBE
:101FA000FA48C7680C210F40C068012109040840A5
:101FB00001902078C007C00F002872D0082F04D0ED
:101FC0000C2F0FD1019888420CD1F04800680121F4
:101FD00049040840400C002863D06068002860D1A4
:101FE0000120DCE700BF012109046068884205D1B7
:101FF000E64800680843E549086027E00521090430
:10200000606888420ED1E1480068012189040843D4
:10201000DE49086008460068012109040843DB49DD
:10202000086013E0D9480068012109048843D749B2
:10203000086008460068012109040840009000BFBC
:10204000D248006889008843D049086000BF6068B2
:10205000002813D0FEF73CFF054606E0FEF738FFE8
:10206000401B642801D9032099E7C8480068012172
:1020700049040840400C0028F0D012E0FEF728FF89
:10208000054606E0FEF724FF401B642801D9032023
:1020900085E7BE480068012149040840400C00283B
:1020A000F0D102212068084002286BD1E668202088
:1020B0003040002809D0B548006820210843B349C2
:1020C00008602021304688430646042F04D00C2F98
:1020D00033D10198002830D1AC4800680421084071
:1020E0008008002803D0002E01D1012057E7A7481F
:1020F00040681F2109028843216909020843A34956
:102100004860084600680921884330439F490860B9
:10211000FFF7D8FE9D49C968F022114009099C4A81
:10212000515CC8409B4908600020FFF705F8029009
:10213000029800283FD0029831E7002E23D0934820
:10214000006809218843304390490860FEF7C0FECB
:10215000054606E0FEF7BCFE401B022801D903201D
:102160001DE78A4800680421084080080028F1D053
:10217000864840681F2109028843216909020843F3
:102180008249486017E081480068400840007F4964
:102190000860FEF79DFE054606E0FEF799FE401B2F
:1021A000022801D90320FAE6784800680421084093
:1021B00080080028F1D1102120680840102867D13C
:1021C000002F36D17148006849010840400A0028B4
:1021D00004D0E069002801D10120E0E66B484068A6
:1021E000072149038843616A0843684948600846F3
:1021F00040680002000A218C0906084363494860D0
:10220000606A400B401C01218140C8035F49C968D6
:10221000F022114009095E4A515CC8405D490860DE
:102220000020FEF789FF0290029800284BD0029808
:10223000B5E6E06900282CD054480068FF21013140
:10224000084352490860FEF743FE054606E0FEF7E4
:102250003FFE401B022801D90320A0E64B4800683E
:10226000012149020840400A0028F0D04748406850
:10227000072149038843616A084344494860084686
:1022800040680002000A218C090608433F49486063
:1022900019E03E480068FF21013188433B4908604E
:1022A000FEF716FE054606E0FEF712FE401B02286A
:1022B00001D9032073E6354800680121490208402E
:1022C000400A0028F0D1082120680840082839D1A8
:1022D000606900281BD02D48403000690121084367
:1022E0002A4940310861FEF7F3FD054606E0FEF796
:1022F000EFFD401B022801D9032050E6234840305F
:1023000000690221084040080028F0D01AE01F4868
:1023100040300069400840001C4940310861FEF728
:10232000D7FD054606E0FEF7D3FD401B022801D984
:10233000032034E615484030006902210840400877
:102340000028F0D1042120680840042879D1002019
:1023500000900E48806B89060840002806D10B4883
:10236000806B084309498863012000900A4800688F
:10237000FF210131084000281ED1074800680843AA
:1023800005490860FEF7A4FD05460EE00010024076
:10239000187400083801002000700040FEF798FD16
:1023A000401B642801D90320F9E5B3480068FF21E8
:1023B000013108400028F1D000BFFF210131A068A1
:1023C000884205D1AD4800690843AC49086130E056
:1023D000A06800280DD1A9480069FF210131884378
:1023E000A64908610846006909158843A3490861A0
:1023F0001FE005210902A06888420DD19F480069AD
:102400000121890208439D49086108460069891530
:1024100008439A4908610CE098480069FF2101319E
:10242000884396490861084600690915884393491D
:10243000086100BFA068002815D0FEF749FD0546D9
:1024400008E031E0FEF744FD401B8D49884201D988
:102450000320A4E589480069012149020840400A97
:102460000028EFD013E0FEF733FD054607E0FEF746
:102470002FFD401B8249884201D903208FE57F4808
:102480000069012149020840400A0028EFD1009864
:10249000012808D179484038806B01210907884319
:1024A00076494039886300BF2021206808402028F1
:1024B00052D1A06900282BD000BF704840388068F6
:1024C000012108436D49403988600846406B01216D
:1024D00008436A49403948636A48006A0121490350
:1024E00008436849086200BFFEF7F2FC054606E0B3
:1024F000FEF7EEFC401B022801D903204FE55F48A0
:10250000403880680221084040080028F0D023E0CD
:1025100000BF5A4840388068400840005749403959
:1025200088605848006A0121490388435549086278
:1025300000BFFEF7CDFC054606E0FEF7C9FC401BD8
:10254000022801D903202AE54C484038806802213E
:10255000084040080028F0D1A06A00284CD00C2F79
:1025600069D0A06A022848D1444840380068012157
:1025700009068843414940390860FEF7A9FC054631
:1025800006E0FEF7A5FC401B022801D9032006E562
:102590003A4840380068012149060840400E0028AA
:1025A000EFD1216BE06A0843616B0843334940393E
:1025B000C968FD2212049143084330494039C8607C
:1025C000084600680121090608432C494039086083
:1025D000FEF77EFC054606E0FEF77AFC401B02286B
:1025E00001D90320DBE42548403800680121490671
:1025F0000840400E0028EFD03CE0204840380068FA
:102600000121090688431D4940390860FEF760FC36
:10261000054606E0FEF75CFC401B022801D90320BA
:10262000BDE4164840380068012149060840400EC4
:102630000028EFD11EE0A06A012800D1AFE40F48C6
:102640004038C06801900121090401980840E16AFE
:1026500088420DD10F21890401980840216B8842DE
:1026600006D10321890501980840616B884201D099
:10267000012094E4002092E40070004040100240E9
:10268000881300000000014070B504462546681E0E
:102690000949884201D901200CE0681E07494861B8
:1026A0000321081F00F068FD00200449886107200D
:1026B0000861002070BD0000FFFFFF0000E000E0A7
:1026C00030B5024600BF3820805C012801D10220CD
:1026D00030BD01253820855400BF0225392085549E
:1026E000106843681068846870251846A84303463C
:1026F0000868034380252046A843044648680443ED
:10270000106843601068846001253920855400BF3B
:1027100000253820855400BF0020D9E710B50446B5
:10272000002C01D1012010BD3920005D002805D109
:10273000002138200155204600F00CF802213920F4
:102740000155211D206800F0F3FF012139200155BA
:102750000020E8E710B504460949206888420DD1F9
:102760000848806B202108430649886300221146EF
:102770001220FEF717FD1220FEF708FD10BD000025
:10278000001400400010024001460868C0680123A0
:1027900018430B68D860086880684207520F062A01
:1027A00005D008680068012318430B6818600020F2
:1027B0007047000001460868C068400840000A6889
:1027C000D06000BF0868006A064A1040002805D1A2
:1027D00008680068400840000A68106000BF0020D8
:1027E0007047000011110000704710B504462068C2
:1027F000006902210840400800281CD02068C068F9
:1028000008404008002816D0481F216808610120B0
:102810002076206880698007800F002803D020463A
:10282000FFF7E2FF05E0204600F09DF8204600F0AB
:102830009BF8002020762068006904210840800869
:1028400000281DD02068C06808408008002817D0E4
:10285000C84321680861022020762068806903212E
:1028600009020840002803D02046FFF7BDFF05E01D
:10287000204600F078F8204600F076F80020207618
:102880002068006908210840C00800281CD0206882
:10289000C0680840C008002816D0C84321680861F5
:1028A000042020762068C0698007800F002803D0AC
:1028B0002046FFF799FF05E0204600F054F8204637
:1028C00000F052F8002020762068006910210840AE
:1028D000000900281DD02068C068084000090028B1
:1028E00017D0C84321680861082020762068C06995
:1028F000032109020840002803D02046FFF774FF97
:1029000005E0204600F02FF8204600F02DF80020CA
:10291000207620680069C007C00F01214840484068
:1029200000280CD02068C068084048404840002873
:1029300005D0C81E21680861204600F016F82068FE
:10294000006940210840800900280BD02068C06839
:1029500008408009002805D0C84321680861204646
:1029600000F004F810BD704770477047704770471B
:1029700070470000FEB504462068C56920680668F7
:10298000206887682807000F0190019800280ED161
:102990002020284000280AD020203040002806D0DF
:1029A000206E002802D02046216E8847FEBD019887
:1029B00000287DD0F807C00F002804D1FF20213067
:1029C00030400028F5D0E807C00F00280BD0FF20CA
:1029D00001303040002806D0012021680862E06FF5
:1029E00001210843E0670220284000280AD0F807A8
:1029F000C00F002806D0022021680862E06F042181
:102A00000843E0670420284000280AD0F807C00FD8
:102A1000002806D0042021680862E06F02210843E4
:102A2000E0670820284000280ED0202030400028F1
:102A300003D1F807C00F002806D0082021680862DB
:102A4000E06F08210843E067E06F002846D02020AF
:102A50002840002809D020203040002805D0206ED2
:102A6000002802D02046216E8847E06F0090206841
:102A7000806840210840402804D008210098084080
:102A8000002826D0204600F04DFF206880684021B5
:102A90000840402819D120688068884321688860F0
:102AA000E06E00280DD02548E16E8863E06E00E0FE
:102AB00015E0FDF7B3FF002810D0E06E816B88476A
:102AC0000CE02046FFF754FF08E02046FFF750FFD8
:102AD00004E02046FFF74CFF0020E06766E7012096
:102AE0000005284000280CD001208005384000282F
:102AF00007D001200005216808622046FFF737FF54
:102B000054E78020284000280AD080203040002848
:102B100006D0606E002802D02046616E884745E7E7
:102B200040202840002807D040203040002803D013
:102B3000204600F009FF39E700BF37E70D390008EC
:102B400010B50446002C01D1012010BDA069002859
:102B500000D000E000BF606F002805D10021702088
:102B60000155204600F02CF824206067206800689A
:102B70004008400021680860204600F0F5FE01286A
:102B800000D1E2E7606A002802D0204600F00EFE85
:102B9000206840680921C90288432168486020688C
:102BA00080682A21884321688860206800680121A4
:102BB000084321680860204600F070FEC5E7000069
:102BC00010B586B00446142101A8FDF704FB2E4978
:102BD0002068884224D12D48806B01218904084354
:102BE0002A49886300BF0846C06A02210843274972
:102BF000C8620846C06A02210840009000BF00BFBA
:102C00000320800201900220029000200390032004
:102C100004900420059001A91D48FEF753F830E008
:102C20001C49206888422CD11848406B0121890337
:102C300008431649486300BF0846C06A012108439B
:102C40001249C8620846C06AC007C00F009000BFA2
:102C500000BF032040020190022002900020039058
:102C6000032004900420059001A905200007FEF729
:102C700029F8002211461B20FEF794FA1B20FEF7CC
:102C800085FA06B010BD0000004800400010024068
:102C90000004005000380140FFB583B004460D46E3
:102CA0001746606F202875D1002D01D0002F02D16A
:102CB000012007B0F0BD01210903A068884208D1B6
:102CC0002069002805D1E807C00F002801D00120A5
:102CD000EFE700BF7020005D012801D10220E8E786
:102CE00001217020015500BF0020E06721206067AE
:102CF000FEF7EEF8019050200753522007530121B0
:102D00000903A068884205D12069002802D1002665
:102D1000029502E02E460020029021E006980090E5
:102D2000002280212046019B01F01EF8002801D0DE
:102D30000320BEE7002E09D102980088C005C00D0F
:102D4000216888620298801C029003E03078216834
:102D50008862761C5220005B401E81B252200153D3
:102D60005220005B0028D9D1069800900022402113
:102D70002046019B00F0F8FF002801D0032098E7CF
:102D80002020606700BF00217020015500BF002097
:102D90008FE7FFE702208CE7704700BFFEE730B502
:102DA0000B46002100BF12E0040F0A2C04D2040FCE
:102DB00030344D005C5503E0040F37344D005C5552
:102DC000000100254C00641C1D554C1CE1B29142D1
:102DD000EADB30BD1CB50020009001903F4840491F
:102DE000086000213E48C16300203D494860002141
:102DF0003B48816005218163012101610021C1609F
:102E00000121001D017700214177001F8162FF2110
:102E1000C231416201212430017204212438416110
:102E20000021016381614163C161FDF727FC002836
:102E300001D0FDF762FB012000900003019069467C
:102E40002748FDF773FB002801D0FDF756FB254806
:102E5000009069462248FDF769FB002801D0FDF784
:102E60004CFB2148009069461D48FDF75FFB002898
:102E700001D0FDF742FB1D48009069461848FDF758
:102E800055FB002801D0FDF738FB19480090694632
:102E90001348FDF74BFB002801D0FDF72EFB15482A
:102EA000009069460E48FDF741FB002801D0FDF770
:102EB00024FB1148009069460948FDF737FB0028BC
:102EC00001D0FDF71AFB0D48009069460448FDF754
:102ED0002DFB002801D0FDF710FB1CBD0024014094
:102EE0007403002002000004040000080800000C25
:102EF0001000001020000014400000188000001C8A
:102F000008B500BF0A48006B01210843084908635F
:102F10000846006BC007C00F009000BF00BF002232
:102F200011460920FEF73EF90920FEF72FF908BDEA
:102F30000010024000B587B0142102A8FDF74BF93C
:102F400000BF2948C06A042108432749C8620846CF
:102F5000C06A04210840019000BF00BF00BF2248A2
:102F6000C06A802108432049C8620846C06A80219F
:102F70000840019000BF00BF00BF1B48C06A01218C
:102F800008431949C8620846C06AC007C00F0190CB
:102F900000BF00BF00BF0846C06A022108431249B3
:102FA000C8620846C06A02210840019000BF00BF05
:102FB00000220E490E48FDF785FF0C4802900120C3
:102FC000039000200490059002A90948FDF77AFEBD
:102FD0003820029000200390049002A90448FDF7D5
:102FE00071FE07B000BD00000010024002030000A7
:102FF0000004005010B51348134908601348486096
:103000000021114881600121C160002101614161FD
:103010008161C1610162FDF7D1FF002801D0FDF798
:103020006CFA00210848FDF759FF002801D0FDF790
:1030300064FA00210448FDF788FF002801D0FDF75D
:103040005CFA10BD0054004018040020BB7C7000E6
:1030500010B50D480D4908604B2000024860002162
:103060000A488160C16001610C21416100218161D8
:1030700001620020054948620846FFF761FD00280B
:1030800001D0FDF73AFA10BD00480040640400206A
:103090001CB50020009001900E480F4908600020E8
:1030A000486000210C488160C1604161FFF736FB38
:1030B000002801D0FDF721FA202000900020019087
:1030C00069460548FFF7FCFA002801D0FDF715FA1C
:1030D0001CBD0000001400406405002010B50E481F
:1030E0000E4908604B20C001486000210B488160F8
:1030F000C16001610C21416100218161C1610162F6
:103100000020064948620846FFF71AFD002801D052
:10311000FDF7F3F910BD000000380140E404002081
:1031200010B500220F49104801F02CFB002801D0F7
:10313000FDF7E3F90D490C4801F024FE002801D009
:10314000FDF7DBF90A49084800F0E9FF002801D043
:10315000FDF7D3F9044801F0FDFE002801D0FDF78A
:10316000CCF910BDD4000020880600204C010020BE
:10317000240100207047000010B5002819DA1A4A0F
:1031800003071B0F083B9B089B00D2588307DC0EEC
:10319000FF23A3409A438B071B0E8407E40EA34032
:1031A0001A43114B0407240F083CA408A4001A5129
:1031B00018E00E4A03231B02D21883089B00D25842
:1031C0008307DC0EFF23A3409A438B071B0E840763
:1031D000E40EA3401A43054B032424021B19840860
:1031E000A4001A5110BD00001CED00E000E100E059
:1031F000FEB50546CCE128684030808802900298F0
:103200000607360F002E70D11021029808400028C2
:1032100036D100BF29680988E24A114008460121D9
:10322000C90301432A68118000BF2C46283428684E
:103230004030008A2178C9004018801C0122920287
:1032400029688918405A8005800DE061E16960694C
:103250004018606100212846FDF7F9FF2420405DF9
:103260000028C7D0A0690028C4D12420405D802157
:10327000084329684031888100212420415587E195
:103280002C46FF3429342868008801900121C902A6
:1032900001980840002829D028684030008A217809
:1032A000C9004018801D0122920229688918405ADD
:1032B0008005800DE061A08B83B2E28828680090D1
:1032C000232000012918009802F056FE00BF29684B
:1032D0000988B54A11400846802101432A681180B7
:1032E00000BF2846FEF72DFB52E17CE00121C90317
:1032F000019808400028C2D000BF29680988AA4A5E
:1033000011400846802101432A68118000BF2868C7
:103310004030008A2178C9004018801D01229202A5
:1033200029688918405A8005800DE061E06900280D
:103330000BD0A08B83B2E28861692868009002F00C
:103340001BFEE16960694018606100212846FDF7B5
:103350008DFF00BF29680091296840310A8A0099D1
:10336000511800910122920200998918891D08467E
:1033700000BF2269002A09D102888C4B1A400280C2
:1033800002880123DB031A43028018E022693E2AE7
:103390000CD200BF22695108227CD207D20F002A2A
:1033A00000D0491C8A06120C028008E000BF226986
:1033B00051098A020123DB031A43028000BF00BFC8
:1033C00000BF00BF29680988794A114008460121D9
:1033D00009034840490048408900014380221143C5
:1033E0002A681180D4E0B1002868405A0190012178
:1033F000C9030198084000287ED000BFB2002968A8
:10340000895A694A1140084680210143B3002A685D
:10341000D15200BF71012846FF3029300C18207BA3
:10342000002817D128684030008A2178C900401848
:10343000801D0122920229688918405A8705BF0D14
:10344000002F54D0E288616928683B46009002F062
:1034500093FD4CE0217889002868405A01218903B6
:103460000840002817D028684030008A2178C90019
:103470004018801C0122920229688918405A870549
:10348000BF0D002F1ED02289616928683B4600903D
:1034900002F072FD16E028684030008A2178C900E9
:1034A0004018801D0122920229688918405A870518
:1034B000BF0D002F06D06289616928683B460090E5
:1034C00002F05AFD00BF00BF227892002968895A95
:1034D000344A8032114008460121C9030143C02209
:1034E000114323789B002A68D15200BF00BFE069D6
:1034F000C019E061606900E012E0C0196061A06974
:10350000002802D02069B84204D921782846FDF766
:10351000ADFE05E021782846A3696269FDF77BFFCF
:10352000802101980840002832D0710128462830B7
:103530000C1800BFB2002968895A1A4A114008467F
:103540000121C9030143B3002A68D15200BF286892
:103550004030008A2178C9004018801C0122920264
:1035600029688918405A8005800DE061E169606929
:1035700040186061A069002804D121782846FDF731
:1035800066FE05E021782846A3696269FDF7AFFF72
:103590002868403080880121C9030840002800D0F5
:1035A00029E6FEBD0F8F00008F0F0000FF83000093
:1035B0008FBF00007047704710B5FDF79FFD10BD2D
:1035C00010B500F001F810BD00B59DB038210FA86E
:1035D000FCF701FE14210AA8FCF7FDFD282168462E
:1035E000FCF7F9FD204800680321C9028843012146
:1035F000C90240181C49086003200F9001200004F4
:103600001090012012901020139002201990C103F5
:103610001A91C1041B9181051C910FA8FEF7BAFCF9
:10362000002801D0FCF769FF0F200A9003200B90BF
:1036300000200C900D900E9001210AA8FEF714FBBB
:10364000002801D0FCF759FF4D2000900020039086
:103650000590069009906846FEF7B2F9002801D05F
:10366000FCF74BFF1DB000BD00700040154800681E
:10367000FF2101310843134908600846C068124918
:1036800008401049C86008460068104908400D49C4
:103690000860084680684008400088600846006866
:1036A000012189048843074908600846C068FD2154
:1036B000090488430349C86000200861C80304491D
:1036C00088607047001002400C40FF88F6FFF6FE4D
:1036D00000ED00E010B5134800680069C007C00F96
:1036E000012148404840002817D00E480068C068B3
:1036F00008404840484000280FD0C81E09490968C2
:10370000086109480088401E07490880084600886B
:10371000002802D10548006880470248FFF765F895
:1037200010BD0000640500200600002028000020D5
:1037300010B5026801239B07984208D0184B9842A5
:1037400005D0184B984202D0174B984205D17024EF
:103750001346A3431A464B681A4301239B0798421A
:1037600008D00F4B984205D00E4B984202D00E4B1A
:10377000984206D1032424021346A3431A46CB6879
:103780001A4380241346A3430C6923431A4602605C
:103790008B68C3620B6883620123436110BD000024
:1037A000000400400008014000140140818CC9075A
:1037B000C90F002908D001684968012252049143C9
:1037C000826A1143026851600222416A1140022953
:1037D00007D101684968D2039143C26A1143026864
:1037E00051600422416A1140042907D101684968E7
:1037F00012049143026B1143026851600822416A2E
:103800001140082907D10168496812039143426BAE
:103810001143026851601022416A1140102907D1FA
:103820000168896812029143826B114302689160BA
:103830002022416A1140202907D1016889681202BB
:103840009143C26B1143026891604022416A11406A
:10385000402915D10168496892039143026C1143D4
:103860000268516001221205016C914208D1016881
:103870004968032252059143426C1143026851602A
:103880008022416A1140802907D1016849681203EA
:103890009143826C114302685160704738B5044609
:1038A0000020E067FDF714FB05462068006808214A
:1038B000084008280BD114482B46002289040090A8
:1038C000204600F051FA002801D0032038BD2068BE
:1038D00000680421084004280BD10B482B46002225
:1038E00009050090204600F03FFA002801D003208F
:1038F000ECE720206067A06700BF00217020015521
:1039000000BF0020E2E70000FFFFFF0170B50546A1
:10391000AC6A00215A200153522001532046FFF780
:1039200027F870BD01680968FF22213291430268BF
:103930001160016889684908490002689160202186
:10394000816700210166704710B504462068006851
:10395000402188432168086020206067002060665D
:103960002046FFF719FA10BDF0B587B004461020C5
:1039700004900025002003900026EE49206888422C
:1039800000D100E000BF2169A068084361690843D5
:10399000E1690843074620680068E7490840384362
:1039A0002168086020684068032109038843E168B2
:1039B000084321684860A769DE492068884201D031
:1039C000206A0743206880680B2109028843384336
:1039D0002168886000BFD949206888421CD1D84836
:1039E000C0688007800F002806D001280AD002286E
:1039F00005D003280CD108E0012004900BE0022040
:103A0000049008E00420049005E00820049002E0FF
:103A10001020049000BF54E0CA49206888421CD19D
:103A2000C748C0680C210840002806D004280AD0E6
:103A3000082805D00C280CD108E0002004900BE0E9
:103A40000220049008E00420049005E0082004907F
:103A500002E01020049000BF33E0BB492068884298
:103A600002D1002004902CE0B8492068884202D19D
:103A70000020049025E0AF49206888421FD1B0485B
:103A8000C068032189020840002808D0012189026A
:103A9000401A0AD0401A05D0401A0CD108E0002084
:103AA00004900BE00220049008E00420049005E05C
:103AB0000820049002E01020049000BF01E01020D4
:103AC000049000BF9B492068884256D1049804287E
:103AD0001AD004DC002807D002281CD108E00828EE
:103AE00016D0102817D117E0FEF7C8F9064616E0E1
:103AF000934840380068102108400009002801D090
:103B0000934E00E0934E0AE0FEF7DCF9064606E02D
:103B10000126F60303E000BF0120039000BF00BFB1
:103B2000002E0AD0606841004018B04203D8606897
:103B30000003B04202D201200390F4E060680290DA
:103B40003046FF21013102F05CFA6268520800231E
:103B50008018594101910090029AFCF7F3FA05464A
:103B600003200002854205D37B48854202D82068A5
:103B7000C560D8E001200390D5E00121C903E069C8
:103B800088426FD1049804283CD006DC002809D074
:103B9000012813D002284AD11CE008283ED0102862
:103BA00045D145E0FEF76AF94000616849084018D0
:103BB00002906168FCF79CFA85B23CE0FEF770F970
:103BC000400061684908401802906168FCF790FA6B
:103BD00085B230E05A48403800681021084000099A
:103BE000002807D061684A085C4BD018FCF780FABF
:103BF00085B206E061684A08594BD018FCF778FA9C
:103C000085B218E0FEF75EF9400061684908401887
:103C100002906168FCF76CFA85B20CE061684A08B2
:103C200001231B04D018FCF763FA85B203E000BF40
:103C30000120039000BF00BF102D0FD349488542DB
:103C40000CD848480F38284005902807400F0599A0
:103C50000843059005982168C86064E0012003903E
:103C600061E0FFE7049804283AD006DC002809D078
:103C7000012812D0022847D11AE008283BD010288A
:103C800042D142E0FEF7FAF8616849084018029014
:103C90006168FCF72DFA85B23AE0FEF701F9616838
:103CA0004908401802906168FCF722FA85B22FE0BB
:103CB000234840380068102108400009002807D038
:103CC00061684A08224BD018FCF712FA85B206E068
:103CD00061684A081F4BD018FCF70AFA85B217E052
:103CE000FEF7F0F861684908401802906168FCF737
:103CF000FFF985B20CE061684A080123DB03D018A4
:103D0000FCF7F6F985B203E000BF0120039000BF85
:103D100000BF102D05D31348854202D82068C56026
:103D200001E001200390002020666066039807B040
:103D3000F0BD000000480040F369FFEF003801408B
:103D40004010024000440040004C00400050004041
:103D500000093D000024F400FFFF0F0000127A006C
:103D60000048E801FFFF0000FFB581B004460D46A2
:103D700017460A9E22E0701C00281FD0FDF7A8F805
:103D80000499401AB04201D8002E17D1206800686B
:103D9000FF21A131884321680860206880684008BD
:103DA00040002168886020206067A06700BF002174
:103DB0007020015500BF032005B0F0BD2068C06928
:103DC0002840A84201D1012000E00020B842D2D012
:103DD0000020F1E770B51C480068C0692021084048
:103DE000440919480068006808404509002C0ED0B5
:103DF000002D0CD015480068804701214902144865
:103E0000FDF75CF8012010490968086270BD0E4892
:103E10000068C06980210840C00900280FD00A4806
:103E2000006800680840C009002808D009480068F8
:103E30008047FF2101310648FDF740F8E6E70248D8
:103E4000FEF798FD00BFE1E7E40400202000002019
:103E50000004005024000020F8B504460D4605205B
:103E6000C001201806690520C001201887690520B7
:103E7000C00120180069002829D014206843214679
:103E800014314018806800281BD06A013B46283353
:103E9000D218116914226A4323461433D218906849
:103EA000FCF726F900290CD114206843224614326D
:103EB0008018816000231A462946204600F036FF0C
:103EC00003E000218520800081510020F8BD022000
:103ED000FCE770B504460E460520C00120180569B0
:103EE0003146204600F090FD83218900485105208D
:103EF000C0012018006900280DD08121890048598F
:103F00000521C90161184969CA68832189006918B6
:103F10009047002070BD0220FCE770B504460E46B5
:103F200000258121204600F064FC0021E16201218E
:103F3000204600F05EFC0021FF2059300151822113
:103F4000204600F056FC002121640520C001201805
:103F50000069002810D00521C90161184969486825
:103F600080470521C9016118086901F0BFF90020E7
:103F70000521C90161180861284670BD70B5054664
:103F80000520C001281804690520C00128184069CF
:103F9000002813D001204002005DFF280ED0084900
:103FA0000A5D491E085D0521C901691849698B68C8
:103FB00021469847FF21012040020155002070BD95
:103FC0000102000001460A200880014870470000F5
:103FD000400100200146432008800148704700004E
:103FE000C8010020014643200880014870470000B6
:103FF00084010020014643200880014870470000EA
:104000000C020020F8B504460F460026207C00284C
:1040100012D101235B0202228121204600F06DFDB6
:104020000121E1624B020222204600F066FD0121DF
:10403000FF205930015110E0402302228121204607
:1040400000F05BFD0121E16240230222204600F0E6
:1040500054FD0121FF205930015108230322822100
:10406000204600F04AFD012121648720800001F0F4
:104070003FF90521C901611808610520C001201818
:104080000069002801D1012623E00520C001201885
:1040900005690521C901611849690868804700213F
:1040A000852080004151001D4151207C002808D10D
:1040B000812080004259031F0121204600F035FD78
:1040C00007E081208000425940230121204600F072
:1040D0002CFD3046F8BD70B504460520C0012018FF
:1040E00005690520C00120180069002815D0207C32
:1040F000002808D1812080004259031F0121204659
:1041000000F013FD07E08120800042594023012187
:10411000204600F00AFD002070BD0220FCE70246A8
:104120000220002904D00523DB01D31859610020A7
:10413000704702460520C0011018036981208000E5
:10414000C1500020704710B503460520C001181863
:1041500004694120C00001512120000102510020CA
:1041600010BDFEB505460C460520C001281806699D
:10417000002101910091002720786021084000284B
:104180002FD020286DD1E088002820D020788021F1
:10419000084000280ED0E28860780521C90169181E
:1041A00049698B6831469847E2883146284600F0D5
:1041B000D7F815E06178012040028155A179401CB3
:1041C0008155E2883146284600F0A7F808E060787B
:1041D0000521C9016918496900228B682146984761
:1041E00045E06078002804D00A2814D00B2830D18C
:1041F00023E0132040012818007D032805D1022266
:104200006946284600F0ACF804E02146284600F054
:1042100078F8022723E0132040012818007D0328A6
:1042200005D1012201A9284600F09AF804E02146B0
:10423000284600F066F8022711E0132040012818F4
:10424000007D032804D02146284600F05AF80227B2
:1042500005E02146284600F054F8022700BF00BFC1
:1042600005E02146284600F04CF8022700BF00BFB9
:104270003846FEBD70B504460D460520C001201825
:10428000C0682946426820469047002070BD70B53E
:1042900004460D46132040012018007D012804D05B
:1042A000022803D003280DD101E000BF00BF6888B9
:1042B000012806D100219F2080000151204600F0F6
:1042C00061F804E02946204600F01BF800BF00BF5B
:1042D00070BD70B506460C4615462B462246002199
:1042E000304600F022FC002070BD70B506460C463A
:1042F00015462B4622460021304600F017FD0020CF
:1043000070BD70B504460D468021204600F0DAFCF1
:104310000021204600F0D6FC70BD70B504460E4664
:10432000154603219B2080000151FF204930055193
:10433000001D05512B4632460021204600F0F5FBBA
:10434000002070BD10B5044605219B20800001515E
:1043500000231A461946204600F0E7FB002010BD56
:1043600070B504460E46154602219B20800001517F
:10437000E56125622B4632460021204600F0D6FC3E
:10438000002070BD10B5044604219B20800001511F
:1043900000231A461946204600F0C8FC002010BD34
:1043A00070B505460C46002D05D12246054906A0EC
:1043B00000F0AAF904E02246024903A000F0A4F9A3
:1043C000004870BDB80D002043444320436F6E6623
:1043D000696700000246122008800148704700000B
:1043E000F000002070B505460C46002D05D1224690
:1043F000054906A000F088F904E02246024903A01E
:1044000000F082F9004870BDB80D002043444320FD
:10441000496E74657266616365000000024604209F
:1044200008800148704700000401002070B505466F
:104430000C462246024903A000F066F9004870BD10
:10444000B80D002053544D6963726F656C656374D9
:10445000726F6E696373000070B505460C46002DDF
:1044600005D12246054906A000F04EF904E0224697
:10447000024903A000F048F9004870BDB80D0020C3
:1044800053544D3332205669727475616C20436FFA
:104490006D506F727400000070B505460C461A200E
:1044A0002080FCF72BF8014870BD000008010020B7
:1044B00070B504460D46E888012804D029462046F8
:1044C000FFF71FFF20E0132040012018007D012886
:1044D00004D0022803D0032810D109E000BF002037
:1044E000A0600122214608312046FFF739FF0AE08B
:1044F0000122211D2046FFF733FF04E02946204614
:10450000FFF7FFFE00BF00BF70BDF8B504460E46C2
:1045100070880012030001F08CFD0897050F2897A2
:1045200097738497207C0521C901611889680A68FE
:104530006946904705468CE0207C00280AD105207A
:10454000C0012018C068816A684688470546022174
:10455000697009E00520C0012018C068C16A68467A
:10456000884705460221697073E0B078030001F0C6
:1045700060FD06040E18222C3640207C0521C9015E
:10458000611889684A6869469047054636E0207C8C
:104590000521C901611889688A68694690470546FE
:1045A0002CE0207C0521C90161188968CA68694628
:1045B0009047054622E0207C0521C90161188968E1
:1045C0000A6969469047054618E0207C0521C90123
:1045D000611889684A696946904705460EE0207C63
:1045E0000521C901611889688A69694690470546AD
:1045F00004E031462046FFF784FEF8BD00BF28E006
:10460000207C002808D10520C0012018C068416B1B
:104610006846884705461CE031462046FFF771FE94
:10462000EBE7207C00280AD10520C0012018C068D3
:10463000016B6846884705460721697009E03146E5
:104640002046FFF75EFED8E731462046FFF759FEC9
:10465000D3E700BF68460088002812D0F088002801
:104660000FD0F08869460988884202DD68460088D4
:1046700000E0F088009069460A8829462046FFF746
:104680006FFEF088002802D12046FFF77BFE00BFB6
:10469000B3E70146002002E0421CD0B2491C0A7870
:1046A000002AF9D1704770B504460D461320400129
:1046B0002018007D012804D0022803D003281CD133
:1046C00001E000BF00BFE888022804D02946204648
:1046D000FFF717FE16E00120E0609F2080000059E0
:1046E000002803D00221E0680843E060022221464E
:1046F0000C312046FFF734FE04E029462046FFF740
:1047000000FE00BF00BF70BDF8B504460D46174659
:104710000026002C1ED02046FFF7BBFF4000801C67
:1047200038803A783046711CCEB22A540322314682
:10473000701CC6B26A540AE022783046711CCEB2B0
:104740002A54641C00223046711CCEB22A542078B0
:104750000028F1D1F8BD01460020002906D001292A
:1047600006D0022906D0032908D105E0002007E081
:10477000022005E0012003E0022001E0022000BF4A
:1047800000BF704770B504460D461646002C01D197
:10479000022070BD0520C0012018C068002804D088
:1047A00000200521C9016118C860002D03D0052033
:1047B000C001201885600120132149016118087586
:1047C0002670204600F02CF90020E2E7F8B50446F8
:1047D0000D46002600270521C90161188869294670
:1047E000FCF78AFD06463046FFF7B5FF0746384618
:1047F000F8BDF8B504460D46002600270521C9017D
:10480000611888692946FCF741FD06463046FFF7E6
:10481000A2FF07463846F8BDF8B504460E461746CF
:10482000002E75D1254614359B20800000590228A2
:1048300050D12969E868884210D92969E868401A86
:10484000E860A88982B239462046FFF74EFD002372
:104850001A461946204600F068F949E02969A86817
:10486000FBF746FC002919D12969A868884215D3AD
:10487000272000010059A96881420FD20022114669
:104880002046FFF732FD00212720000101510023BF
:104890001A461946204600F048F929E00520C001D3
:1048A0002018C068C06800280CD0132040012018D0
:1048B000007D032806D10520C0012018C068C1680A
:1048C000204688478021204600F0FCF92046FFF76B
:1048D00039FD0DE09B2080000059042804D09B2066
:1048E00080000059002803D18021204600F0EAF919
:1048F000132040012018007E012821D1204600F01D
:104900004CFA0020132149016118087618E0FFE7EE
:104910000520C0012018C068406900280ED013206F
:1049200040012018007D032808D10520C00120186F
:10493000C068314642692046904701E00220F8BD38
:104940000020FCE7F8B504460E461746002E41D17C
:104950002546FF3541359B208000005903282CD186
:104960002969E868884210D92969E868401AE8602E
:104970002969E868884201D2E86800E0286982B2C3
:1049800039462046FFF7A5FC3CE00520C001201871
:10499000C068006900280CD0132040012018007D59
:1049A000032806D10520C0012018C06801692046EF
:1049B00088472046FFF7E6FC24E09B208000005952
:1049C00005281FD100219B2080000151204600F0C6
:1049D00079F917E00520C0012018C0688069002817
:1049E0000ED0132040012018007D032808D1052097
:1049F000C0012018C068314682692046904701E016
:104A00000220F8BD0020FCE770B504460D460521E4
:104A1000C901611888692946FCF7ADFC70BD00002A
:104A200010B504462548046725480521C9016118C9
:104A300088612448224908600820486002212048F3
:104A40008160016100218161C1610162FCF774FE36
:104A5000002801D0FBF751FD0521C9016118182379
:104A6000002288691146FCF7D3FB0521C9016118B2
:104A70005823002288698021FCF7CAFB0521C9015F
:104A80006118C023002288698121FCF7C1FB052140
:104A9000C9016118FF231133002288690121FCF745
:104AA000B7FB0521C9016118FF2301330022886982
:104AB0008221FCF7ADFB002010BD0000240B00207C
:104AC00024090020005C004010B502460520C0010A
:104AD0001018836980200840802806D14806040DFC
:104AE000184628302018807810BD4806040D184656
:104AF000FF30293020188078F6E7FEB504460F46CF
:104B000015461E460020019000900521C90161183C
:104B10002B46324688693946FCF736FC01900198ED
:104B2000FFF719FE00900098FEBDFEB504460D4645
:104B300016461F460020019000900521C90161180A
:104B40003B46324688692946FCF765FC019001988E
:104B5000FFF701FE00900098FEBD10B5044640230B
:104B6000002211462046FFF7C8FF0121FF204530F3
:104B700001514021FF20513001514023002280216A
:104B80002046FFF7BAFF0121A161402161620120A7
:104B9000132149016118087500219B2080000151F3
:104BA000002060609F2080000151001D20180069D6
:104BB000002807D021790520C0012018C06842686C
:104BC00020469047002010BD0146132040010818E0
:104BD000407D132252018A1810750020704710B5CD
:104BE0000446132040012018007D03280DD1052024
:104BF000C0012018C068C069002806D00520C00187
:104C00002018C068C16920468847002010BD0246B0
:104C1000117400207047F8B504460D4600260027A1
:104C20000521C901611888692946FCF769FE064615
:104C30003046FFF790FD07463846F8BD70B504468C
:104C40000D4629460520C001201800F087F80121F3
:104C50009B20800001510520C0012018C188272019
:104C6000000101510520C00120180078C006C00EC7
:104C7000002804D0012809D0022815D10DE0052014
:104C8000C0012118204600F06CF918E00520C00191
:104C90002118204600F0E4FA11E00520C001211897
:104CA000204600F0B2F90AE00520C0012018007883
:104CB000802210400146204600F004F800BF00BFEB
:104CC000002070BDF8B504460D46002600270521DA
:104CD000C901611888692946FCF7C1FB06463046C0
:104CE000FFF739FD07463846F8BD70B50446002584
:104CF00000260521C90161188869FCF72DFE0546CB
:104D00002846FFF728FD0646304670BD01461320B1
:104D100040010818007D132252018A1850750420A2
:104D2000132252018A18107500207047FEB5044600
:104D30000D4616461F460020019000900521C9012E
:104D400061183B46324688692946FCF7D0FB019042
:104D50000198FFF700FD00900098FEBD0A780270F0
:104D60004A7842708B78CA7812029A1842800B797E
:104D70004A7912029A1882808B79CA7912029A189B
:104D8000C280704702460020002904D00523DB01C1
:104D9000D318D96000E00220704701460020704718
:104DA00070B504460D46A88800282CD1E888002854
:104DB00029D16888802826D2A8784606760E132046
:104DC00040012018007D032804D129462046FFF722
:104DD00098FA1CE0132040012018867531462046C1
:104DE000FFF719FF2046FFF7CDFA002E05D002206D
:104DF000132149016118087509E0012013214901B7
:104E00006118087503E029462046FFF77AFA70BD5D
:104E100070B504460D4602260520C0012018C06862
:104E200000280AD00520C0012018C0682946026861
:104E300020469047002800D10026304670BD000073
:104E400070B504460D46A8783A49087008460078BF
:104E5000012804D929462046FFF753FA68E01320B9
:104E600040012018007D022802D0032855D11FE000
:104E700030480078002817D02E4800786060032062
:104E800013214901611808752A4801782046FFF767
:104E9000BFFF022804D129462046FFF732FA70BD31
:104EA0002046FFF76FFA02E02046FFF76BFA3EE07C
:104EB00020480078002810D10220132149016118F0
:104EC00008751C48007860601A4801782046FFF792
:104ED000D1F92046FFF756FA1EE0164909786068B6
:104EE000884216D021792046FFF7C4F9114800788E
:104EF0006060104801782046FFF78AFF022804D13D
:104F000029462046FFF7FDF9C9E72046FFF73AFAA0
:104F100002E02046FFF736FA09E029462046FFF76F
:104F2000F0F9044801782046FFF7A4F900BF00BF5C
:104F300000BFB4E73C01002070B505460C46608810
:104F4000012806D101219F20800041512846FFF70A
:104F500019FA70BD10B504462046FFF7C6FE0020C2
:104F600010BD70B505460C4600262078602108402B
:104F700000280ED0202802D040283ED100E000BFFB
:104F80000520C0012818C06821468268284690473D
:104F900038E06078030001F04CF80A1A24291F2930
:104FA0000B062915102921462846FFF7AEFA22E004
:104FB00021462846FFF7F4FE1DE021462846FFF76C
:104FC0003FFF18E021462846FFF772FA13E021461A
:104FD0002846FFF768FB0EE021462846FFF7ACFFA6
:104FE00009E021462846FFF752F904E02146284609
:104FF000FFF787F900BF00BF04E021462846FFF70E
:1050000080F900BF00BF304670BDF8B505460E46BA
:1050100000200090347930786021084000280ED0BC
:10502000202802D0402870D100E000BF0520C00138
:105030002818C06831468268284690470DE13078CC
:105040006021084020280AD10520C0012818C06826
:10505000314682682846904700900098F8BD7078E5
:10506000002869D0012835D0032877D113204001CA
:105070002818007D022802D0032824D111E0002C3A
:105080000AD0802C08D021462846FFF71BFE80213D
:105090002846FFF717FE03E031462846FFF731F9AF
:1050A00016E0708800280AD1002C08D0802C06D089
:1050B000F088002803D121462846FFF703FE284642
:1050C000FFF760F904E031462846FFF71AF900BF00
:1050D00000BFBBE0132040012818007D022802D049
:1050E000032822D112E0002C0AD0802C08D02146BF
:1050F0002846FFF7E7FD80212846FFF7E3FD03E0A0
:1051000031462846FFF7FDF814E0A1E0708800283A
:105110000AD16006400E002803D021462846FFF73A
:1051200055FB2846FFF72EF904E031462846FFF7E5
:10513000E8F800BF00BF89E0132040012818007D77
:10514000022802D0032875D125E0002C07D0802C3E
:1051500005D031462846FFF7D4F870E071E0802092
:105160002040802806D16006400E1421484369186B
:10517000401807E06006400E142148432946FF31DD
:10518000413140180746002038600222394628463F
:10519000FFF7E6F853E08020204080280DD120075B
:1051A000000F14214843691840184068002814D1A2
:1051B00031462846FFF7A5F841E02007000F1421EB
:1051C00048432946FF31413140184068002804D146
:1051D00031462846FFF795F831E0802020408028AE
:1051E00006D16006400E142148436918401807E0B4
:1051F0006006400E142148432946FF3141314018D2
:105200000746002C01D0802C02D1002038600AE033
:1052100021462846FFF758FC002802D001203860BC
:1052200001E000203860022239462846FFF798F84E
:1052300005E0FFE731462846FFF763F800BF00BFEF
:1052400004E031462846FFF75CF800BF00BF04E0E9
:1052500031462846FFF755F800BF00BF0098FDE62D
:1052600070B505460C4600262078602108400028CD
:1052700006D0202802D0402830D100E000BF00BF77
:10528000132040012818007D012804D0022803D0F3
:1052900003281CD101E000BF00BF2079012811D8EC
:1052A0000520C0012818C06821468268284690471A
:1052B0000646E088002809D1002E07D12846FFF7CE
:1052C00061F803E021462846FFF71BF804E0214679
:1052D0002846FFF716F800BF00BF04E02146284625
:1052E000FFF70FF800BF00BF002070BD704700003F
:1052F0000146014870470000980B0020F8B50246AF
:105300000020009008788000105AFE4C2040034690
:10531000C878002806D001280ED0022806D003281D
:105320000ED105E00120400203430CE000BF0AE07B
:1053300003204002034306E001208002034302E011
:105340000120009000BF00BF1846EF4C20430C78AE
:10535000A400105300BF0C78A400145BEB4D2C404C
:105360000D782C4320460124E403044380252C437C
:105370000D78AD00545300BF087B00287DD14878DC
:1053800000284ED000BF10465025AD5A28180D7881
:10539000ED000126B6028619AC19CD886D106D009E
:1053A000258000BF00BF0C78A400105B402404409F
:1053B000002C0FD000BF0D78AD00555BD34E3540AB
:1053C0002C460125ED032543C02635430E78B60053
:1053D000955300BF00BFC878012811D000BF0C78DA
:1053E000A400145BC94D30352C4020462024604079
:1053F000A402044380252C430D78AD005453B0E142
:1054000000BF0C78A400145BC04D30352C40204602
:105410000124E403044380252C430D78AD0054534C
:105420009FE100BF10465025AD5A28180D78ED00B9
:105430002D1D0126B6028619AC19CD886D106D00A0
:10544000258000BF00BF15465024A45A65190C786A
:10545000E400A41D0126B602AE19A419204600BF1F
:105460000E69002E0AD10688A94F3E4006800688A4
:105470000127FF033E43068019E049E00E693E2EF6
:105480000CD200BF0E6974080E7CF607F60F002ED2
:1054900000D0641CA606360C068008E000BF0E692A
:1054A0007409A6020127FF033E43068000BF00BF28
:1054B00000BF00BF0C78A400105B0124A4030440CB
:1054C000002C10D000BF0D78AD00555B8F4E3540DD
:1054D0002C460125ED0325438126F60135430E7840
:1054E000B600955300BF00BF00BF0C78A400145B4A
:1054F000884D2C4020460124240360406400604015
:10550000A400044380252C430D78AD00545328E1BA
:1055100000BF0C78A400145B7C4D2C402046012475
:10552000E4030443FF2581352C430D78AD0054532B
:1055300000BF00BF00BF00BF10465025AD5A28185D
:105540000D78ED000126B6028619AC190D896D1093
:105550006D00258000BF00BF00BF00BF1046502572
:10556000AD5A28180D78ED002D1D0126B6028619BA
:10557000AC194D896D106D00258000BF00BF00BFC4
:105580004878002868D100BF0C78A400105B012483
:10559000A4030440002C10D000BF0D78AD00555B73
:1055A0005A4E35402C460125ED0325438126F60150
:1055B00035430E78B600955300BF00BF00BF0C788E
:1055C000A400105B40240440002C0FD000BF0D78D5
:1055D000AD00555B4D4E35402C460125ED0325436E
:1055E000C02635430E78B600955300BF00BF00BFFC
:1055F0000C78A400145B454D2C4020460124E403A4
:105600000443C0252C430D78AD00545300BF00BFA8
:105610000C78A400145B3F4D2C4020460124240349
:10562000604064006040A400044380252C430D7852
:10563000AD00545300BF00BF0C78A400145B334D81
:1056400030352C4020460124E403044380252C43BC
:105650000D78AD00545384E000BF0C78A400105BBB
:105660000124A4030440002C10D000BF0D78AD002D
:10567000555B264E35402C460125ED0325438126FA
:10568000F60135430E78B600955300BF00BF00BF4A
:105690000C78A400105B40240440002C0FD000BF05
:1056A0000D78AD00555B194E35402C460125ED03B4
:1056B0002543C02635430E78B600955300BF00BF82
:1056C00000BF0C78A400145B104D2C402046012430
:1056D000E40304438125ED012C430D78AD005453C0
:1056E00000BFC87801281CD000BF0C78A400145B50
:1056F000064D30352C40204620246040A40204434F
:10570000802509E08F890000808000008F8F0000D5
:10571000FF8300008FBF00002C430D78AD00545371
:105720000FE000BF0C78A400145B0F4D2C40204606
:105730000124E403044380252C430D78AD00545329
:1057400000BF00BF0C78A400145B084D2C4020461D
:105750000124E403044380252C430D78AD00545309
:1057600000BF0098F8BD0000BF8F00008FBF000091
:1057700030B50246087B002857D14878002829D048
:1057800000BF0B789B00D05A40230340002B0FD062
:1057900000BF0C78A400145B8C4D2C4023460124E0
:1057A000E4031C43C0252C430D78AD00545300BFC7
:1057B00000BF00BF0B789B00D35A844C3034234089
:1057C00018460123DB030343802423430C78A40001
:1057D0001353F8E000BF0B789B00D05A01239B03C2
:1057E0000340002B10D000BF0C78A400145B774D51
:1057F0002C4023460124E4031C438125ED012C4366
:105800000D78AD00545300BF00BF00BF0B789B0064
:10581000D35A6F4C234018460123DB0303438024F3
:1058200023430C78A4001353CDE04878002864D1BA
:1058300000BF0B789B00D05A01239B030340002B31
:1058400010D000BF0C78A400145B604D2C402346A0
:105850000124E4031C438125ED012C430D78AD00A8
:10586000545300BF00BF00BF0B789B00D05A4023A9
:105870000340002B0FD000BF0C78A400145B534DE5
:105880002C4023460124E4031C43C0252C430D78FF
:10589000AD00545300BF00BF00BF0B789B00D35A2C
:1058A0004A4C234018460123DB030343C02423430F
:1058B0000C78A400135300BF00BF0B789B00D35A91
:1058C000434C234018460123DB0303438024234336
:1058D0000C78A400135300BF00BF0B789B00D35A71
:1058E0003A4C3034234018460123DB030343802421
:1058F00023430C78A400135365E000BF0B789B0092
:10590000D05A01239B030340002B10D000BF0C781A
:10591000A400145B2D4D2C4023460124E4031C43BA
:105920008125ED012C430D78AD00545300BF00BF1D
:1059300000BF0B789B00D05A40230340002B0FD0B0
:1059400000BF0C78A400145B204D2C40234601249A
:10595000E4031C43C0252C430D78AD00545300BF15
:1059600000BF00BF0B789B00D35A184C2340184649
:105970000123DB0303438124E40123430C78A400C7
:10598000135300BF00BF0B789B00D35A0F4C303429
:10599000234018460123DB030343802423430C7870
:1059A000A400135300BF00BF0B789B00D35A084CD0
:1059B000234018460123DB030343802423430C7850
:1059C000A400135300BF002030BD00008F8F0000E3
:1059D0008FBF000001465820405A0122D2031043D5
:1059E000582250520020704710B504460121402033
:1059F00001530021015344200153502001532046FC
:105A000000F0A2FA002010BD0146044A4020405A8E
:105A100090434023585200207047000080BF000090
:105A2000024600207047000030B502464878002842
:105A30002CD000BF0B789B00D05A40230340002B92
:105A40000FD000BF0C78A400145B294D2C402346D6
:105A50000124E4031C43C0252C430D78AD005453AE
:105A600000BF00BF00BF0B789B00D35A204C3034DE
:105A70002340184610235840202358409B020343DC
:105A8000802423430C78A40013532EE000BF0B782E
:105A90009B00D05A01239B030340002B10D000BF72
:105AA0000C78A400145B124D2C4023460124E4031F
:105AB0001C438125ED012C430D78AD00545300BFEC
:105AC00000BF00BF0B789B00D35A0A4C23401846F6
:105AD00001231B0358405B0058409B000343802474
